:1000000069C025C1FDCFFCCFFBCFFACFD0C1F8CF5F
:10001000F7CFF6CFF5CFF4CFF3CFF2CFF1CFF0CFCC
:10002000EFCFEECFEDCF303132333435363738398C
:100030000E111111111F1F1F0E11111F1F1F1F1F46
:100040000E1F1F1F1F1F1F1F14000A0064006B00DC
:1000500073007D0086008D00960000000000000007
:10006000000000004D6F6E64617900547565736423
:100070006179005765646E657364617900546875D1
:1000800072736461790046726964617900536174C6
:1000900075726461790053756E646179003A004F3E
:1000A0004E004F46460080C00100020048000E008E
:1000B00066014C00020060019D00020062019D008B
:1000C000020064019D000A0004005A00020074014D
:1000D000A6000000F894EE27ECBBF1E0FBBFEBBFFD
:1000E000E5BFF8E1F1BDE1BD8DE0A2E0BB27ED93F6
:1000F0008A95E9F780E094E0A0E6ED930197E9F7AF
:10010000E8EAF0E085919591009761F0A591B591AD
:1001100005901590BF01F00105900D920197E1F750
:10012000FB01F0CFEFE5EDBFE4E0EEBFC0E6D1E0CC
:100130006FC160D3EA81EE0FEE0FEE0FE0640E2F79
:1001400010E0183060F40A930395EC81FD8131963C
:10015000EC83FD8331978FD2FCD11F5FF2CF4DD35B
:1001600025960895B1990CC0B19BFECFB29BFECFEE
:10017000B29B02C0B19901C003C0E881EF5FE88380
:10018000B2990CC0B29BFECFB19BFECFB29B02C016
:10019000B19901C003C0E881E150E883E88169C2F8
:1001A000EFD1E4E06BD270D2F9D1E5E067D273D23F
:1001B000F5D178D2E0E6F1E07AD27CD2A42D64D2F7
:1001C0007ED2A42D68D2EAD180D2E2E6F1E06FD2ED
:1001D00081D2A72D59D2E2D1EBE081D2A72D5BD2FB
:1001E00082D2E62D86D223FE05C0EFE078D2AD2D77
:1001F00052D2D4D127C0C4D155D2A92D45D2CED107
:1002000059D2A92D48D25BD2E4E6F1E050D25DD2BA
:10021000A82D3AD2C3D15ED2A82D3DD2BFD1EFE0F6
:100220005ED2AD2D38D25FD2EB2D63D2EAE06CD234
:1002300020FE03C0EFE9F0E002C0E2EAF0E0FA934A
:10024000EA93D9D1EFE060D2AA92A8D1089560D202
:1002500022FE0DC0E89422F8E72DE65FCE2EECE3F7
:10026000CE1620F0EC2D62D2FC97CE2E99C021FE46
:1002700003C0E89420F894C0F894DD24689423F82F
:10028000E0E0E5BFEBBF8CDFE9E0ED1509F488C0E5
:10029000A0E0B199A1E0E0E0B299E1E0EA17C9F489
:1002A000829916C0829BFECFD394E2E0ED1509F44B
:1002B0007894E5E0ED1511F4E89424F8E4E0ED1508
:1002C00010F06EDF01C097DFE9E0DE1608F068C0CD
:1002D000DFCFED2D2BD2E130A0E0FA0749F47A927E
:1002E00041DF7E2EECE37E1608F0772459DF57C0FD
:1002F000E230A0E0FA0749F44A9234DF4E2EECE3F4
:100300004E1608F044244CDF4AC0E330A0E0FA0760
:1003100049F45A9227DF5E2EE8E15E1608F0552474
:100320003FDF3DC0E430A0E0FA0749F46A921ADFEB
:100330006E2EE7E06E1608F0662432DF30C0E5303E
:10034000A0E0FA0741F48A920DDF8E2EECE38E16C0
:1003500008F0882423C0E630A0E0FA0741F49A921E
:1003600001DF9E2EE8E19E1608F0992417C0E730C1
:10037000A0E0FA0741F4BA92F5DEBE2EE7E0BE1621
:1003800008F0BB240BC0E830A0E0FA0741F4E0E03D
:1003900020FCE1E0EA93E6DE28D220F82CDF74CFDF
:1003A0007894C6D1E89423F8689424F823C0B0D197
:1003B0007394ECE3E71511F443947724ECE3E4152C
:1003C00011F453944424E8E1E51511F463945524A1
:1003D000E7E0E61509F4662421FE08C0E5B5E03043
:1003E00011F4EFE101C0E0E0E5BD02C0E0E0E5BDF1
:1003F00024FCD6DEE991EFBFF991E991B991A99179
:100400009991899179916991F9901990099018952C
:10041000E1E0E8BBE9E0E7BBE0E0E5BBE4BBE2BB71
:10042000E1BBEFBDECE0EEBDE0E1E9BFE7E0FDE3FD
:10043000FBBDEABDE0E0E5BDE8E0E3BD79D1E0E881
:10044000E8B9E5E0E6B9E5E6E7B9E0E1EA93E4D04A
:10045000E0E3F0E072D1E0E0EA936BDEE8E3F0E0A5
:100460006CD1E1E0EA9365DEE0E4F0E066D1E2E041
:10047000EA935FDE789422FC02C0C71409F402C03C
:10048000C09803C0C09A689422F820FE06C06B147E
:1004900021F4591411F4481409F002C0689401C001
:1004A000E89421F8A72DBB27E4E1F0E07ED1E1300C
:1004B000A0E0FA0711F4379A369A349B19C0E5B1D7
:1004C000E83B18F4AA24689421F8E5B1E83B18F059
:1004D000E5B1E23D08F004C0E1E0AE2EE89421F879
:1004E000E5B1E23D20F0E2E0AE2EE89421F8379845
:1004F000C2CFFFCFE881E07111F0AB9A01C0AB9899
:10050000E881E07211F0AA9A01C0AA98E881E0742B
:1005100011F0A99A01C0A998E881E07811F0A89A91
:1005200001C0A89883E08A95F1F7AC9A87E08A9594
:10053000F1F7AC9887E08A95F1F79BC0E88100D18C
:10054000E881E295E883E881FBD083E48A95F1F7BE
:1005500090C0E981F7D0909AE881F4D090980EC0CD
:10056000E881E4D0EC58FE4FE081A981EA0FEAD09F
:10057000E981E0937801E881E0937901229608957A
:10058000E2E0E0D0E1D0ECE0DDD0E1E0DBD0DCD0B7
:10059000E0E0E0937901E09378010895A881AA3022
:1005A00031F0E0917A01A0917801AE1768F0E0E0B7
:1005B000EA93E0917901EF5FE0937901EA93D0DF6C
:1005C000A881AA3009F455C0E0917801EF5FE0936B
:1005D0007801909AE881B6D090984BC01A93A9817F
:1005E000BA81ED91A983BA831E2FE03019F01A93D6
:1005F000D5DFF5CF0EC01A93E981FA813196E983F0
:10060000FA833197E4911E2FE03019F01A93C6DF78
:10061000F3CF188123960895A39AA29AA19AA09A3B
:10062000A49A889A899AAC9890989198E881E093D6
:100630007A01E058E0937601E881E054E093770195
:10064000E4E1F0E07AD089D0E0E37AD081D080D0C4
:1006500085E88A95F1F7E0E273D085E88A95F1F7AD
:10066000E8E270D0E4E06ED0E5E86CD0E6E06AD075
:1006700087DF21960895E491EA930895EA93E0E0F4
:10068000EA936EDFA52D0895B0E0EAE0F0E088D0AF
:10069000EA5DFF4FF0CFBB27EAE0F0E086D0EA5DED
:1006A000FF4FE9CFE6E0EA93E0E0EA9359CFFA930F
:1006B000EA9394CFE7E0EA93E0E0EA9351CF6EDF6C
:1006C000E8E0EA93E0E0EA934BCFE9E0EA93E0E088
:1006D000EA9346CFEAE0EA93E0E0EA9341CFEA9377
:1006E000E0E0EA933DCF5ADFE0E0EA93E1E0EA930D
:1006F00037CFA6E6B1E0F0E0EE0FFF1FAE0FBF1F51
:1007000070D0FA93EA9377CFEA93E1E0EA9328CFA7
:100710000A921A92FA926A937A938A939A93AA9374
:10072000BA93EA93FA93EFB7EA930895F0E0089545
:10073000E2E0E5BFE0E4EBBF0895FA93EA930895A1
:10074000EA93D8CEEA93FACEE3E0F0E0F6DF05C014
:1007500085E88A95F1F7E0E3F3CFE991F9913096D6
:1007600039F088EE93E00197F1F7A8953197C9F732
:100770000895F195E195F04008950024112490E149
:10078000AA0FBB1F001C111C0E1A1F0A18F40E0E14
:100790001F1E01C0A1609A9599F7FD01D00108952F
:1007A00012D0EBDF0EF4E5DF0895E894B7FF04C044
:1007B000A095B09511966894F7FDDBDFDEDFFD01B3
:1007C0000EF4D7DF0895E894F7FF02C0D2DF6894F3
:1007D000B7FF06C0A095B095119600F8039400FAF3
:1007E0000895ED91FC9111970895E894EE2309F096
:1007F000689408951A930A930895198108810895B9
:00000001FF
